:100000000C94A90E0C94E90E0C94E90E0C94E90ED4
:100010000C94E90E0C94E90E0C94E90E0C94E90E84
:100020000C94E90E0C94E90E0C94E90E0C94E90E74
:100030000C94E90E0C94E90E0C94E90E0C94E90E64
:100040000C94E90E0C94A0820C94E90E0C94E90E29
:100050000C94E90E0C94827D0C94E90E0C94AE7C09
:100060000C94E90E0C9446830C943C830C94E90E9A
:100070000C94E90E0C94E90E0C94E90E0C94E90E24
:100080000C940E830C94E90E0C94E90E0C94E90E7A
:100090000C94E90E0C94E90E0C94E90E0C94E90E04
:1000A0000C94E90E0C94E90E0C94E0820C94E90E89
:1000B0000C94E90E0C94E90E0C94E90E0C94E90EE4
:1000C0000C94E90E0C94E90E0C94E90E0C94E90ED4
:1000D0000C94E90E0C94E90E0C94E90E0C94E90EC4
:1000E0000C94E90E084AD73B3BCE016E84BCBFFDA1
:1000F000C12F3D6C74319ABD56833DDA3D00C77FF8
:1001000011BED9E4BB4C3E916BAAAABE0000008090
:100110003F05A84CCDB2D44EB93836A9020C50B91F
:10012000918688083CA6AAAA2ABE000000803F004B
:100130000C940C100C9466170C9486170C94CE1724
:100140000C9464170C943A170C94EE0F0C94D2177D
:100150000C9488170C94CD0F0C9406100C94F40F8B
:100160000C94F80F0C94E70F0C94AA170C948A17B0
:100170000C94D0170C94E30F0C94C80F0C94DF0F61
:100180000C9470830C94AC170C9402100C94141003
:100190000C94EB0F0C9446170C941E100C941A1030
:1001A0000C94FE0F0C94AE170C9410104E414E4957
:1001B0004E495459494E46CDCCCC3D0AD7233C1725
:1001C000B7D13877CC2B329595E6241FB14F0A0072
:1001D0000020410000C84200401C4620BCBE4CCA62
:1001E0001B0E5AAEC59D74434F4D4D554E4943416C
:1001F00054494F4E0044525952554E004552524FA9
:10020000525300494E464F004543484F00507269D3
:100210006E7465722073746F7070656420647565A8
:1002200020746F206572726F72732E204669782079
:10023000746865206572726F7220616E64207573D8
:1002400065204D39393920746F207265737461727D
:10025000742E202854656D70657261747572652006
:1002600069732072657365742E20536574206974F8
:100270002061667465722072657374617274696E50
:1002800067290A004E6F20436865636B73756D20A4
:1002900077697468206C696E65206E756D62657231
:1002A0002C204C617374204C696E653A20006368A1
:1002B00065636B73756D206D69736D617463682C14
:1002C000204C617374204C696E653A20004C696E55
:1002D00065204E756D626572206973206E6F7420A3
:1002E0004C617374204C696E65204E756D62657249
:1002F0002B312C204C617374204C696E653A2000C0
:100300004D3131300053657269616C2073746174D2
:100310007573206D69736D617463680A00746F6F23
:10032000206D75636820696E6163746976652074F9
:10033000696D65202D2063757272656E7420636F20
:100340006D6D616E643A20002121204B494C4C2098
:100350006361757365642062792000627573793A10
:100360002070617573656420666F7220696E7075A8
:10037000740A00627573793A207061757365642040
:10038000666F7220757365720A00627573793A2020
:1003900070726F63657373696E670A006563686F77
:1003A0003A004572726F723A004F4646004F4E0057
:1003B00042696C696E656172204C6576656C696E28
:1003C0006720477269643A0A002E0A002F005072B3
:1003D0006F62696E67206D65736820706F696E74F7
:1003E0002000202844525952554E290047323920C6
:1003F0004175746F20426564204C6576656C696E4A
:1004000067003F20284C2C522C462C4229206F7527
:1004100074206F6620626F756E64732E0A003F2829
:1004200056296572626F7365206C6576656C20690C
:100430006D706C61757369626C652028302D34298C
:100440002E0A00426164205A2076616C75650A00AC
:100450004E6F2062696C696E6561722067726964B3
:100460000A0020440020204D323030205300202844
:1004700044697361626C6564293A0046696C616D18
:10048000656E742073657474696E67730020204D07
:100490003230312058004D617820416363656C65CE
:1004A000726174696F6E2028756E6974732F733270
:1004B000290020204D3230332058004D61782066CD
:1004C00065656472617465732028756E6974732F35
:1004D00073290020520020204D323034205000413A
:1004E0006363656C65726174696F6E2028756E69EF
:1004F00074732F7332292028503C7072696E742DEA
:10050000616363656C3E20523C7265747261637412
:100510002D616363656C3E20543C74726176656C3A
:100520002D616363656C3E2900204A002054002041
:10053000530020204D323035204200416476616EF8
:100540006365642028423C6D696E5F7365676D6505
:100550006E745F74696D655F75733E20533C6D69A1
:100560006E5F66656564726174653E20543C6D69BA
:100570006E5F74726176656C5F66656564726174E6
:10058000653E204A3C6A756E635F6465763E29006D
:1005900020440020490020204D33303120500048B5
:1005A0006F74656E64205049440020496E76616C1A
:1005B0006964206578747275646572200047322F13
:1005C00047332062616420706172616D6574657289
:1005D000730A005A2050726F626520506173742054
:1005E0004265640A00473238005A2050726F6265D3
:1005F00020506173742042656400205A3A20002024
:10060000593A200042656420583A20004D657368CD
:1006100020706F696E74206F7574206F6620726130
:100620006E67650A002569730025696D2025697369
:10063000002569682025696D202569730025696496
:10064000202569682025696D202569730025697951
:1006500020256964202569682025696D2025697336
:10066000005072696E742074696D653A20006F6B7A
:10067000006F66660008020302FC01F501E7014411
:10068000454255473A004D31313220536875746404
:100690006F776E004D313133205300434F4E464942
:1006A000475F4558504F5254004D454154504143C7
:1006B0004B00434F4F4C45525F54454D50455241BE
:1006C00054555245004348414D4245525F54454DB3
:1006D00050455241545552450042414259535445A8
:1006E0005050494E470041524353004D4F54494FDB
:1006F0004E5F4D4F44455300544845524D414C5F69
:1007000050524F54454354494F4E00455854454E5E
:100710004445445F4D323000435553544F4D5F467E
:1007200049524D574152455F55504C4F4144004C42
:10073000464E5F5752495445004C4F4E475F46491D
:100740004C454E414D45004155544F5245504F5236
:10075000545F53445F5354415455530053445F57BF
:100760005249544500524550454154005344434179
:1007700052440050524F4D50545F535550504F52B9
:100780005400484F53545F414354494F4E5F434FC9
:100790004D4D414E445300454D455247454E4359FA
:1007A0005F50415253455200434153455F4C4947C6
:1007B00048545F4252494748544E45535300544FA2
:1007C00047474C455F4C494748545300534F4654A4
:1007D000574152455F504F574552004255494C448E
:1007E0005F50455243454E54004C4556454C494E8A
:1007F000475F44415441005A5F50524F42450052B6
:10080000554E4F5554004155544F4C4556454C009C
:100810005052494E545F4A4F420050524F47524542
:100820005353004155544F5245504F52545F544515
:100830004D50004155544F5245504F52545F504F08
:100840005300564F4C554D45545249430045455071
:10085000524F4D0042494E4152595F46494C455F07
:100860005452414E534645520053455249414C5F04
:10087000584F4E5F584F4646004649524D574152D9
:10088000455F4E414D453A4D61726C696E20322E86
:10089000312E322E3420284175672020342032300A
:1008A00032342031353A35353A30392920534F55D5
:1008B0005243455F434F44455F55524C3A67697414
:1008C0006875622E636F6D2F4D61726C696E46693B
:1008D000726D776172652F4D61726C696E20505236
:1008E0004F544F434F4C5F56455253494F4E3A3148
:1008F0002E30204D414348494E455F545950453AAA
:100900004769616E74203344205072696E74657259
:100910002045585452554445525F434F554E543A22
:100920003120555549443A63656465326132662D1C
:10093000343161322D343734382D396231322D6300
:100940003535633632663336376666002F2F003F03
:100950004A206F7574206F662072616E676520286B
:10096000302E303120746F20302E33290A00205869
:10097000003B200020204D61783A200020002020FC
:100980004D696E3A2000203B200020204D3231314D
:10099000205300250A0046523A0020466C6F773AF1
:1009A00020003A200020536572766F2000206F757A
:1009B00074206F662072616E67650A0053657276F7
:1009C0006F200064697300656E0043290A0061624C
:1009D0006C656420286D696E2074656D702000431D
:1009E0006F6C6420657874727564657320617265DC
:1009F00020004F46460A00466164652048656967E5
:100A000068742000426564204C6576656C696E6789
:100A100020004661696C656420746F20656E6162B8
:100A20006C6520426564204C6576656C696E670A6A
:100A300000496E76616C6964206D6573682E0A00EA
:100A40004D34323120696E636F7272656374207049
:100A50006172616D657465722075736167650A0006
:100A60004D65736820706F696E74206F7574206FA8
:100A7000662072616E67650A00546F6F206661724E
:100A80002066726F6D204D494E2F4D41580A00452A
:100A90004550524F4D204F4B0A00290A0020746FD9
:100AA00020003F5A206F7574206F662072616E6758
:100AB00065202800290A0020746F20003F59206F0C
:100AC0007574206F662072616E676520282D00297D
:100AD0000A0020746F20003F58206F7574206F66E5
:100AE0002072616E676520282D00496E76616C6901
:100AF000642065787472756465720A006F6B0020FB
:100B0000204D323036205800486F6D65206F666684
:100B1000736574004361703A00203B0020204D381B
:100B200035312058005A2D50726F6265204F66662D
:100B30007365740020573A00206661696C65642112
:100B400020426164206865617465722069640A00EE
:100B5000504944204175746F74756E650023646557
:100B600066696E652044454641554C545F004B64B0
:100B700020004B6920004B7020002066696E69736D
:100B8000686564212050757420746865206C6173F9
:100B900074204B702C204B6920616E64204B6420C4
:100BA000636F6E7374616E74732066726F6D206212
:100BB000656C6F7720696E746F20436F6E6669672E
:100BC00075726174696F6E2E680A00504944204145
:100BD00075746F74756E6500206661696C6564215B
:100BE0002074696D656F75740A0050494420417521
:100BF000746F74756E6500206661696C6564212090
:100C000054656D706572617475726520746F6F20C4
:100C1000686967680A00504944204175746F7475AB
:100C20006E6500204B643A2000204B693A2000207A
:100C30004B703A200020436C617373696320504904
:100C400044200A002054753A2000204B753A2000B9
:100C5000206D61783A2000206D696E3A2000206492
:100C60003A200020626961733A2000207374617237
:100C7000740A00504944204175746F74756E6500A4
:100C8000206661696C6564212054656D70657261D0
:100C90007475726520746F6F20686967680A005008
:100CA0004944204175746F74756E65006F70656E90
:100CB00000545249474745524544003A20007A5F64
:100CC0006D696E00795F6D696E00785F6D617800A7
:100CD0005265706F7274696E6720656E6473746FAD
:100CE00070207374617475730A0020746F6F206CC8
:100CF0006F6E6720657874727573696F6E2070729D
:100D00006576656E7465640A0020636F6C642065A7
:100D10007874727573696F6E2070726576656E7423
:100D200065640A00486F6D652025732046697273FB
:100D300074000080094400000000000000005761BA
:100D4000726E696E673A20486F6D696E67204275F2
:100D50006D702044697669736F72203C20310A00FF
:100D600002020400800944008054440000BE430095
:100D700000A0400000A040000000405072696E7466
:100D800065722073746F707065642064756520747B
:100D90006F206572726F72732E20466978207468B6
:100DA00065206572726F7220616E642075736520B4
:100DB0004D39393920746F20726573746172742EE5
:100DC000202854656D706572617475726520697351
:100DD0002072657365742E205365742069742061D8
:100DE000667465722072657374617274696E6729C6
:100DF0000A00206572726F72202D20726573746113
:100E000072742077697468204D3939390A00424C70
:100E1000546F7563680021212053544F5020636143
:100E20006C6C65642062656361757365206F662014
:100E30000000800944008054440000BE43000000CC
:100E4000000000000000000000290A002062797400
:100E500065733B20637263200053657474696E6729
:100E6000732053746F726564202800486172646354
:100E70006F6465642044656661756C7420536574A5
:100E800074696E6773204C6F616465640020286D1F
:100E90006D2900203B204C6576656C696E672000EB
:100EA00020204D3432302053004175746F2042654C
:100EB00064204C6576656C696E6700204A002020CE
:100EC000473239205720490020204D313439204302
:100ED000203B20556E69747320696E2043656C73E6
:100EE0006975730A0054656D706572617475726519
:100EF00020556E697473002020473231203B004C2E
:100F0000696E65617220556E697473004545505273
:100F10004F4D206461746173697A65206572726FE8
:100F2000722E0A00202863616C63756C61746564BD
:100F300029210A0020213D2000454550524F4D20D7
:100F4000435243206D69736D61746368202D2028BE
:100F500073746F726564292000454550524F4D20CF
:100F6000436F72727570740A002053697A653A2073
:100F700000496E6465783A2000290A00206279747D
:100F800065733B2063726320002073746F72656425
:100F90002073657474696E67732072657472696515
:100FA0007665642028000000964300009643000008
:100FB000A0400000C8410000A0420000A042000084
:100FC000484500405144B80B0000B80B00006400D5
:100FD000000010270000204D61726C696E3D56388C
:100FE00038290A00454550524F4D20766572736985
:100FF0006F6E206D69736D6174636820284545507C
:10100000524F4D3D0020436F756E7420583A004595
:10101000002C2073797374656D2073746F70706524
:101020006421204865617465725F49443A20005428
:101030004845524D414C2052554E4157415900545C
:101040006865726D616C2052756E617761790048D8
:10105000656174696E67204661696C656400486506
:101060006174696E67206661696C656400457272BF
:101070003A204D415854454D50004D415854454D2E
:101080005020747269676765726564004572723AD0
:10109000204D494E54454D50004D494E54454D50FC
:1010A0002074726967676572656400202F002040B4
:1010B0003A002001400130013B014001360160014E
:1010C000310170012C0190012701B0012201C00102
:1010D0001D01F00118011002130130020E0160021F
:1010E000090190020401C002FF000003FA0040035E
:1010F000F5008003F000D003EB002004E60070044C
:10110000E100E004DC004005D700C005D200400645
:10111000CD00D006C8008007C3003008BE00F0082C
:10112000B900C009B400B00AAF00B00BAA00D00CDF
:10113000A500000EA000500F9B00C010960050129A
:10114000910000148C00C0158700B0178200B01900
:101150007D00D01B7800001E730040206E0090229E
:101160006900F024640040275F0090295A00E02BBA
:101170005500102E500020304B0010324600E03356
:10118000410090353C001037370070383200A039EC
:101190002D00B03A2800A03B2300603C1E00103D0B
:1011A0001900903D1400103E0F00703E0A00C03E32
:1011B0000500003F0000403FFBFF803FF6FFC03FBF
:1011C000F1FF2020506C616E6E6572427566666537
:1011D0007242797465733A20002046726565204D2D
:1011E000656D6F72793A200020436F6D70696C6590
:1011F000643A2041756720203420323032340A00AE
:10120000204C61737420557064617465643A2032B7
:101210003032342D30362D3136207C2041757468C3
:101220006F723A20286E6F6E652C2064656661755A
:101230006C7420636F6E666967290A004D61726C79
:10124000696E20322E312E322E340A0020536F6602
:1012500074776172652052657365740A0020576166
:10126000746368646F672052657365740A00204276
:10127000726F776E206F75742052657365740A0003
:101280002045787465726E616C2052657365740ACE
:1012900000506F77657255700A0073746172740A3A
:1012A00000656E6473746F7073206869743A20000F
:1012B00000000A0B02090C0D0E08070304010000D0
:1012C000000000000000000000000000000000001E
:1012D00000000000000000000000000012111000DB
:1012E00000000000000000000000000000000000FE
:1012F00000000000000024F404D9201BC40C5C0E84
:101300009804C4095F0265077101F405F900FB0444
:10131000B30048048700C103690058035500030364
:101320004500BE023A008402310053022A0029021D
:10133000250004022000E4011C00C8011900AF01CF
:10134000170098011400840113007101100061015D
:10135000100051010E0043010D0036010B002B015E
:101360000B0020010B00150109000C01090003010D
:101370000800FB000800F3000800EB000700E40091
:101380000600DE000600D8000600D2000600CC00F1
:101390000500C7000500C2000500BD000400B9003B
:1013A0000400B5000400B1000400AD000400A90071
:1013B0000400A5000300A20003009F0004009B009E
:1013C00003009800030095000200930003009000C2
:1013D00003008D0002008B000300880002008600DD
:1013E000020084000300810002007F0002007D00F3
:1013F00002007B0002007900020077000100760005
:1014000002007400020072000100710002006F000F
:1014100002006D0001006C0002006A00010069001A
:101420000200670001006600010065000100640021
:1014300002006200010061000100600001005F0025
:1014400002005D0001005C0001005B0001005A0029
:10145000010059000100580001005700010056002A
:10146000010055000100540001005300000053002A
:1014700001005200010051000100500001004F0026
:1014800001004E0000004E0001004D0001004C0024
:1014900001004B0000004B0001004A000100490020
:1014A000010048000000480001004700010046001C
:1014B0000000460001004500000045000100440016
:1014C0000100430000004300010042000000420010
:1014D00001004100000041000100400001003F0008
:1014E00000003F0001003E0000003E0001003D0002
:1014F00000003D0001003C0000003C0000003C00FA
:1015000001003B0000003B0001003A0000003A00EF
:1015100001003900000039000100380000003800E7
:1015200000003800010037000000370001003600DD
:1015300000003600000036000100350000003500D4
:1015400000003500010034000000340000003400C9
:1015500001003300000033000000330001003200BE
:1015600000003200000032000100310000003100B4
:1015700000003100010030000000300000003000A9
:1015800001002F0000002F0000002F0000002F009E
:1015900001002E0000002E0000002E0001002D0092
:1015A00000002D0000002D0000002D0001002C0087
:1015B00000002C0000002C0000002C0001002B007B
:1015C00000002B0000002B0000002B0001002A006F
:1015D00000002A0000002A0000002A000100290063
:1015E0000000290000002900000029000000290057
:1015F000010028000000280000002800000028004A
:10160000000028000100270000002700000027003C
:10161000000027000000270001002600000026002F
:101620000000260000002600000026000100250022
:101630000000250000002500000025000000250016
:101640000000250001002400000024000000240008
:1016500000002400000024000100230000002300FB
:1016600000002300000023000000230000002300EE
:1016700000002300010022000000220000002200E0
:1016800000002200000022000000220001002100D2
:1016900000002100000021000000210000002100C6
:1016A00000002100000021000100200000002000B7
:1016B00000002000000020000000200000002000AA
:1016C000000020000000200001001F0000001F009B
:1016D00000001F0000001F0000001F0000001F008E
:1016E00000001F0001001E0000001E0000001E0080
:1016F00000001E00000024F4D43050C38E20C2A28B
:101700004017828B7011127A910D816CD90AA861F1
:10171000E108C7586607615143061E4B5D05C14588
:10172000A7041A411104093D980371393103403669
:10173000DB0265339102D4305402802E1D02632CEB
:10174000EE01752AC501B028A001102781018F255F
:1017500064012B244B01E0223401AC211F018D20B8
:101760000D01801FFC00841EED00971DDF00B81CDA
:10177000D200E61BC600201BBC00641AB200B219DE
:10178000A8000A19A0006A189900D1179100401703
:101790008B00B516840031167E00B31579003A151A
:1017A0007300C7146F0058146A00EE1366008813A4
:1017B000630025135E00C7125B006C125700151200
:1017C0005400C111510070114F0021114B00D6106F
:1017D00049008D1047004610440002104200C00F1F
:1017E0004000800F3E00420F3C00060F3B00CB0E36
:1017F0003800930E37005C0E3500270E3400F30DD1
:101800003200C10D3100900D3000600D2E00320D00
:101810002D00050D2C00D90C2B00AE0C2900850CD9
:1018200029005C0C2700350C27000E0C2600E80B65
:101830002400C40B2400A00B23007D0B23005A0BB3
:101840002100390B2100180B2000F80A1F00D90ACB
:101850001E00BB0A1E009D0A1D00800A1D00630AAF
:101860001C00470A1B002C0A1B00110A1A00F7096A
:101870001A00DD091900C4091900AB091900920901
:1018800017007B091800630917004C091600360978
:101890001600200916000A091500F5081500E008D1
:1018A0001400CC081400B8081400A4081400900810
:1018B00013007D0812006B08130058081200460838
:1018C0001200340811002308110012081100010849
:1018D0001100F0071000E0071000D0071000C0074B
:1018E0001000B0070F00A107100091070E0083073A
:1018F0000F0074070F0065070E0057070E00490719
:101900000E003B070D002E070E0020070D001307E9
:101910000D0006070D00F9060C00ED060D00E006AF
:101920000C00D4060C00C8060C00BC060C00B00667
:101930000C00A4060B0099060C008D060B00820615
:101940000B0077060B006C060B0061060A005706B9
:101950000B004C060A0042060A0038060A002E0652
:101960000A0024060A001A060A00100609000706E3
:101970000A00FD050900F4050900EB050900E20570
:101980000900D9050900D0050900C7050900BE05F1
:101990000900B5050800AD050800A50509009C056E
:1019A0000800940508008C050800840508007C05E3
:1019B0000800740508006C050700650508005D0552
:1019C0000700560508004E050700470507004005BB
:1019D000080038050700310507002A050700230520
:1019E00007001C050600160507000F05070008057F
:1019F000060002050700FB040600F5040700EE04DC
:101A00000600E8040600E2040700DB040600D50433
:101A10000600CF040600C9040600C3040600BD0486
:101A20000600B7040600B1040500AC040600A604D5
:101A30000600A00405009B04060095040500900420
:101A400006008A04050085040500800406007A0467
:101A5000050075040500700405006B0405006604AC
:101A60000500610405005C040500570405005204EC
:101A700005004D04050048040500430405003E042C
:101A800004003A04050035040500300404002C0469
:101A9000050027040400230405001E0404001A04A2
:101AA000040016040500110404000D0404000904D8
:101AB00005000404040000040400FC030400F8030F
:101AC0000400F4030400F0030400EC030400E80342
:101AD0000400E4030400E0030400DC030400D80372
:101AE0000400D4030400D0030400CC030400C803A2
:101AF0000300C50303005D2E00006E2300001318D1
:101B00000000AF0E00003D08000063040000450225
:101B1000000027010000486F6D696E67204661690B
:101B20006C65640001FFFF50726F62696E6720464A
:101B300061696C65640A00205A3A200020593A20F5
:101B40000042656420583A2000DB0FC93F45BCDAEB
:101B50003F8FB30240FCF0274056946140FE4B9B00
:101B60004084A5D840E0231841346A5641E859978B
:101B70004164DBD5416E271742B4B75542CE1A9760
:101B800042C8AED542B5885A43D40684BFA65FA7E3
:101B9000BF7443E0BF10B11AC01C2C58C0E8F697C0
:101BA000C0B849D6C04E4E17C124D355C180249722
:101BB000C1A0B5D5C1121A17C244AE55C278179745
:101BC000C26CACD5C267885AC320746F6F206C6F2B
:101BD0006E6720657874727573696F6E20707265B8
:101BE00076656E7465640A0020636F6C64206578A6
:101BF00074727573696F6E2070726576656E746548
:101C0000640A00220A00556E6B6E6F776E20636F58
:101C10006D6D616E643A202200204500205A00203C
:101C2000590020204D3932205800537465707320BC
:101C300070657220756E6974006F6B0A005265736F
:101C4000656E643A200020453A00205A3A00205937
:101C50003A00583A0000002200250028002B002EF0
:101C6000003100340002010000050108010B0100F1
:101C7000002100240027002A002D0030003300013D
:101C8000010000040107010A010505050507050813
:101C9000080808020202020A0A08080404040401EF
:101CA0000101010101010103030303030303030411
:101CB0000707070C0C0C0C0C0C0C0C0202020206A1
:101CC000060606060606060B0B0B0B0B0B0B0B0191
:101CD000021020200808102040102040800201023D
:101CE0000108040201010204081020408080402005
:101CF0001008040201800402018040201008040240
:101D000001080402010102040810204080010204BD
:101D100008102040804572726F7220777269746972
:101D20006E6720746F20454550524F4D210A005078
:101D300072696E7465722068616C7465642E206BC4
:101D4000696C6C28292063616C6C6564210A000051
:101D5000708311241FBECFEFD1E2DEBFCDBF00E004
:101D60000CBF84B78093680D14BE0FB6F894A89585
:101D700080916000886180936000109260000FBEC7
:101D800013E0A0E0B2E0E6E3FAE201E00BBF02C03C
:101D900007900D92A231B107D9F72DE0A2E1B3E08F
:101DA00001C01D92A836B207E1F71EE0C9EADEE0E5
:101DB00000E006C021970109802FFE010E94D49403
:101DC000C83AD10780E00807A9F70E9418840C944C
:101DD00019950C940000FC0120818091B70C909122
:101DE000B80C922728E0AC01880F991F57FD07C057
:101DF0002150C9F79093B80C8093B70C0895F1E285
:101E00008F27F0E19F27F4CF90E0FC01E153F34EE0
:101E100024918757934EFC018491882399F090E098
:101E2000880F991FFC01E159F34EA591B491FC0173
:101E3000EB5AF34E859194918FB7F894EC91E22B85
:101E4000EC938FBF0895CF92DF92EF92FF920F93A2
:101E50001F9326EF3AE141E0F901C590D590E59056
:101E6000F490C616D706E806F90658F496958795B5
:101E700077956795440F2C5F3F4F5BE12231350723
:101E800059F74093A606613271058105910568F402
:101E9000E6EFF6E16591749190E080E01F910F917B
:101EA000FF90EF90DF90CF900895DC01CB018097F9
:101EB000A109B109811528E09207A105B105C8F073
:101EC00044E0949F900111242A503D4EF90132962E
:101ED00045915491F901259134916627859FF00130
:101EE000849F000CE11DF61F11242E1B3F0BB9012E
:101EF000D3CF8C019D0136952795179507950C7FBB
:101F00000A50194EF80125913491F8013296459105
:101F10005491682F6770649FC001659F900D1124D4
:101F200043E0969587954A95E1F7281B390BDFCF5B
:101F3000282F30E0F901E055FD4E9491F901E1536D
:101F4000F34E44912757334EF9012491222309F48B
:101F500035C0992311F191509231F8F4E92FF0E056
:101F60008827EA54F04F8F4F0C94D494E70FEB0F6F
:101F7000C80FDF0FE30FCD0FEE0FF40FF80FFE0FBA
:101F8000021006100C101010CD0F14101A101E1095
:101F9000809180008F7780938000E22FF0E0EE0F39
:101FA000FF1FEB5AF34EA591B4918FB7F894EC91C3
:101FB000611148C040954E234C938FBF0895809186
:101FC00080008F7DE8CF80918000877FE4CF84B54B
:101FD0008F7784BDE2CF84B58F7DFBCF8091B00039
:101FE0008F778093B000D9CF8091B0008F7DF9CFEB
:101FF000809190008F7780939000CFCF8091900058
:102000008F7DF9CF80919000877FF5CF8091A000E0
:102010008F778093A000C1CF8091A0008F7DF9CFF2
:102020008091A000877FF5CF809120018F778093EA
:102030002001B3CF809120018F7DF9CF80912001C5
:10204000877FF5CF4E2BB8CF3FB7F8948091A2068B
:102050009091A306A091A406B091A50626B5A89BD1
:1020600005C02F3F19F00196A11DB11D3FBFBA2F2A
:10207000A92F982F8827BC01CD01620F711D811DEA
:10208000911D42E0660F771F881F991F4A95D1F76F
:1020900008958F929F92AF92BF92CF92DF92EF926C
:1020A000FF926B017C010E9424104B015C01C11462
:1020B000D104E104F104B9F00E94241068197909EF
:1020C0008A099B09683E73408105910580F321E0F0
:1020D000C21AD108E108F10888EE880E83E0981E44
:1020E000A11CB11CE4CFFF90EF90DF90CF90BF9088
:1020F000AF909F908F9008952FB7F89460919E06AF
:1021000070919F068091A0069091A1062FBF08951F
:10211000CF93DF93C091CA0CD091CB0C209729F1BB
:102120006091C60C7091C70C8091C80C9091C90C3D
:102130000E940E936E5F7F4F24976C177D07ACF45F
:102140007093BC046093BB040E947C10605C734677
:102150008F4F9F4F6093BD047093BE048093BF0464
:102160009093C004DF91CF9108951092BD04109216
:10217000BE041092BF041092C004F4CFCF93DF933B
:102180001092B604C2ECDCE0198618860E94881012
:102190001A862C98DF91CF910895FC0190E1AAE96D
:1021A000B4E001900D929A95E1F70895BC01209159
:1021B0009704309198044091970450919804241703
:1021C000350731F481E02617370709F080E00895DC
:1021D0009A01F1CF00C000C08091C40480FF24C0E8
:1021E000899A8FEF80934E048091C40481FF1FC0B1
:1021F0008F988FEF80934F048091C40482FF1AC0A0
:1022000080910B0180958270809309018FEF8093FC
:1022100050048091C40483FF14C0169A8FEF8093FA
:10222000510400C000C00895899881E0DBCF8F9AE7
:1022300081E0E0CF80910B0182708093090181E001
:10224000E6CF169881E0EBCF80914D04877F809395
:102250004D04129A81E00895129880914D0488608F
:1022600080934D04089521E030E0082E02C0220F33
:10227000331F0A94E2F72095309590914D0429235D
:1022800020934D04813061F020F0823071F081E0C4
:1022900008955F9A8091A8068E7F8093A806F7CF55
:1022A0008A9A8091A8068D7FF8CF80910801809549
:1022B0008170809306018091A8068B7FEECF80E02D
:1022C0000E94331181E00E94331182E00E94331199
:1022D0000C942411813089F070F0823081F021E07B
:1022E00030E001C0220F8A95EAF780914D04822BDD
:1022F00080934D0408955F98F2CF8A98F0CF909123
:102300000801917090930601EACFCF93DF93EC011F
:10231000C43081E0D8076CF184E091E09093CB0C5D
:102320008093CA0CC4E0D1E06091C60C7091C70CD8
:102330008091C80C9091C90C0E940E936E5F7F4FE4
:1023400024976C177D07DCF47093BC046093BB0486
:102350000E947C10605C73468F4F9F4F6093BD045A
:102360007093BE048093BF049093C004DF91CF911B
:102370000895D093CB0CC093CA0C2097A9F6109265
:10238000BD041092BE041092BF041092C004EECFA0
:10239000CF93DF938091CE03811119C0C0911E02AB
:1023A000D0911F02219720E030E040E05FE3609190
:1023B000C60C7091C70C8091C80C9091C90C0E94FA
:1023C000A2910E940E9321E06C177D070CF020E093
:1023D000822FDF91CF910895AF92BF92CF92DF927B
:1023E000EF92FF920F931F93CF93DF93CAEED6E045
:1023F0000EEB16E08AEFA82E86E0B82EC12CD12C69
:102400007601C39469917991899199910E94588D2F
:10241000288939894A895B890E94B98D0E94159360
:10242000F80161937193819391938F01C616D7063A
:10243000E806F90610F46B017C01AC16BD0611F735
:102440006FEF7FEFCB01A70196010E944691209389
:10245000CE063093CF064093D0065093D106DF913D
:10246000CF911F910F91FF90EF90DF90CF90BF9091
:10247000AF900895CF92DF92EF92FF928091E303A5
:10248000882309F457C0C090DF03D090E003E090A8
:10249000E103F090E20320E030E0A901C701B601BA
:1024A0000E94538D882309F445C020E030E040E0CD
:1024B0005FE3C701B6010E94B98D9B01AC010E9488
:1024C000B98D2BED3FE049E450E40E94B98D9B01AA
:1024D000AC0160E070E080E89FE30E949C926B0199
:1024E0007C01C092CA03D092CB03E092CC03F0925D
:1024F000CD036091180270911902072E000C880B11
:10250000990B0E945A8D2AE037ED43E25CE30E946A
:10251000B98DA70196010E94B98D60934D02709309
:102520004E0280934F0290935002FF90EF90DF9005
:10253000CF900895C12CD12C80E8E82E8FE3F82E9F
:10254000D0CF90916F0081E091FD02C080E00895AE
:1025500090916F009D7F90936F000895EFE6F0E0FB
:1025600080818260808308950E94A11291E09093FF
:10257000990481110C94AE120895CF92DF92EF92DC
:10258000FF92CF93DF93C82F0E94A11294E0C99FBE
:10259000E0011124FE01E656FB4FC080D180E280AD
:1025A000F38081110E94AE12CB52D94FC701B60100
:1025B0000E945A8D288139814A815B810E94B98DA0
:1025C000DF91CF91FF90EF90DF90CF9008958F3003
:1025D00010F48F5F08958F500895CF93DF939091FB
:1025E0004C0D80914B0D891740F0891B41F4D0E0D0
:1025F000C0E0CE01DF91CF910895805FF6CF90913A
:10260000480D992351F0833030F48FEF890F19F082
:102610008093480DECCF1092480DC0914C0D88E48A
:10262000C89FE0011124C15CD84F888180FDDFCFB5
:1026300080914C0D0E94E7128093490D90914C0DB2
:1026400080914A0D9813D5CF8091490D80934A0D02
:10265000D0CFFC017081472F50E0062E02C0559567
:1026600047950A94E2F740FF14C04091AD0350E053
:10267000062E02C0559547950A94E2F740FF09C01F
:1026800021E030E001C0220F6A95EAF72095272368
:1026900020830895CF93DF9324E0829FC00111240B
:1026A000EC01C755D34FFC01E953FB4F82559C4FBA
:1026B000DC012D913D914D915C9160817181828110
:1026C00093810E94A291688379838A839B83DF919F
:1026D000CF910895CF93DF931F92CDB7DEB7898353
:1026E00060E0CE0101960E94291361E0CE010196BF
:1026F0000E94291362E0CE0101960E94291389816C
:102700000F90DF91CF9108958F929F92AF92BF92D9
:10271000CF92DF92EF92FF92CF93DF93209120022E
:10272000222309F48EC0EC018091AD03E82E80FFD6
:102730002CC08090220290902302A0902402B0909E
:102740002502288139814A815B81C501B4010E943B
:102750000294181624F488829982AA82BB828090FF
:102760002E0290902F02A0903002B090310228816A
:1027700039814A815B81C501B4010E94538D87FF75
:1027800004C088829982AA82BB82E1FE2CC080901C
:10279000260290902702A0902802B09029022C8156
:1027A0003D814E815F81C501B4010E9402941816DB
:1027B00024F48C829D82AE82BF82809032029090FF
:1027C0003302A0903402B09035022C813D814E81BD
:1027D0005F81C501B4010E94538D87FF04C08C82C4
:1027E0009D82AE82BF82E2FE2CC0C0902A02D090B1
:1027F0002B02E0902C02F0902D02288539854A8525
:102800005B85C701B6010E940294181624F4C8869D
:10281000D986EA86FB86C0903602D0903702E090D7
:102820003802F0903902288539854A855B85C701D1
:10283000B6010E94538D87FF04C0C886D986EA86F8
:10284000FB86DF91CF91FF90EF90DF90CF90BF900C
:10285000AF909F908F9008958091A9039091AA03C3
:10286000A091AB03B091AC03809314029093150236
:10287000A0931602B09317028091A7039091A8032A
:102880009093130280931202089580911402909104
:102890001502A0911602B09117028093A90390939C
:1028A000AA03A093AB03B093AC0380911202909162
:1028B00013029093A8038093A70384E690E090937B
:1028C0001302809312020895CF93DF938091C30483
:1028D000811105C08091A906882309F45BC080910D
:1028E0009A03649951C0816080939A039091030187
:1028F00080919A0391FD4AC0826080939A038091EF
:102900009A034B9945C08B7F80939A03C0918A04A8
:10291000C0FF10C08091C40480FD0CC080919A0358
:1029200080FF08C08091A70681608093A70680E0A1
:102930000E94B412C1FF10C08091C40481FF0CC07A
:1029400080919A0381FF08C08091A70682608093DE
:10295000A70681E00E94B412C2FF1CC08091C4048B
:1029600082FF18C08091A9068823A1F080919A0364
:1029700082FF10C08091A70684608093A70682E042
:10298000DF91CF910C94B4128E7FAECF8D7FB5CFF7
:102990008460BACFDF91CF9108950F931F938091F8
:1029A0009903813019F50E947C10009191031091D8
:1029B00092032091930330919403601B710B820B5F
:1029C000930B28EE33E040E050E00E944691609186
:1029D0008D0370918E0380918F0390919003620F0D
:1029E000731F841F951F1F910F9108956091950388
:1029F000709196038091970390919803D6CF10928F
:102A000099031092910310929203109293031092E3
:102A100094031092950310929603109297031092CC
:102A2000980310928D0310928E0310928F031092D0
:102A300090030895809199038130F1F08230C9F4B8
:102A40000E94CD1460938D0370938E0380938F0347
:102A50009093900381E0809399030E947C1060938F
:102A6000910370939203809393039093940381E076
:102A700008950E94FF14EECF80E00895809199039D
:102A80008150823070F4109299030E947C10609300
:102A9000950370939603809397039093980381E036
:102AA000089580E0089590E080E008952091610D00
:102AB000833021F425FD0CC024FD0CC030E0A901B9
:102AC00002C0559547958A95E2F7CA01817008952D
:102AD00081E0089580E008958091800384FD0BC01B
:102AE0008091820387FD07C090918303937081E0FA
:102AF00019F480E0089581E008952FEB280F2A3122
:102B000008F047C0E22FF0E08091800390918103AC
:102B1000A0918203B091830304C0B695A7959795C1
:102B200087952A95D2F780FD02C081700895EA59F1
:102B3000FC4FE081EE2341F18091E8069091E90697
:102B4000E80FF92FF11D808190ED980F9A3030F049
:102B50008E3251F4818180538A3098F4F09364036B
:102B6000E093630381E008958D3211F08B3249F4D4
:102B7000818190ED980F9A3088F38E3211F4828122
:102B8000EACFF0E0E0E0EACF109264031092630332
:102B9000E9CF80E008950E947D15882341F081E00F
:102BA0002091630330916403232B09F480E008959E
:102BB000E2E5F3E080EF9FEFA9E7B4EC848395832F
:102BC000A683B78380839183A283B383ECE3F3E08E
:102BD0008DE98183808308958F929F92AF92BF92F7
:102BE000CF92DF92EF92FF92FC0198E0A7EDB3E065
:102BF00001900D929A95E1F788E0FB01AFECB3E00C
:102C000001900D928A95E1F7C090D703D090D80338
:102C1000E090D903F090DA0320E030E0A901C70189
:102C2000B6010E94538D8823E1F1A701960160E06F
:102C300070E080E89FE30E949C926B017C01809091
:102C4000DB039090DC03A090DD03B090DE0320E076
:102C500030E0A901C501B4010E94538D882329F1F8
:102C6000A501940160E070E080E89FE30E949C92DF
:102C7000C0924A03D0924B03E0924C03F0924D0372
:102C800060934E0370934F038093500390935103CE
:102C9000FF90EF90DF90CF90BF90AF909F908F907C
:102CA0000895C12CD12C7601CACF60E070E0CB0131
:102CB000DFCF1092D3031092D4031092D503109259
:102CC000D6031092CF031092D0031092D10310922A
:102CD000D2031092DB031092DC031092DD031092FA
:102CE000DE031092D7031092D8031092D9031092EA
:102CF000DA03E4EEF3E028E434E080E090E0A0ECD6
:102D0000BFE780839183A283B38384839583A68363
:102D1000B78380879187A287B38784879587A687A3
:102D2000B787808B918BA28BB38B74962E173F073E
:102D300041F7089581E008958F929F92AF92BF92DC
:102D4000CF92DF92EF92FF92FC01828158E5C52E6F
:102D500052E0D52EC81AD10887FDD394CC0CDD1CC7
:102D6000CC0CDD1C0D2C000CEE08FF08818178E8EE
:102D7000872E912C881A910887FD9394880C991CB2
:102D8000880C991C092C000CAA08BB0880818F3F75
:102D9000D1F190E0FC01EE0FFF1FE80FF91FE251A7
:102DA000F34F8181928133E0880F991F3A95E1F7C3
:102DB000B0E0A0E044E0B595A795979587954A9532
:102DC000D1F702969C012F5F3F4F032E000C440B5E
:102DD000550B281939094A095B09A4EBB0E00E9498
:102DE0008791A7019601281939094A095B090E94B0
:102DF0006891C901FF90EF90DF90CF90BF90AF90A6
:102E00009F908F90089590E080E0DCCFDC01EC9102
:102E10008E2F90E0FC01EE0FFF1FE80FF91FE2512B
:102E2000F34F80818F7780830895CF93DF93EC01F8
:102E3000E62F660FFF0BE055FD4EE491E250E131C5
:102E400008F0B0C0F0E08827E75DF84E8F4F0C9493
:102E5000D4943A17D217D217D217D217641746173D
:102E6000881786176617AC17AA178A17D217D017B4
:102E7000CE17AE1782E1E1E6F2E0DE0101900D929D
:102E80008A95E1F7CE01DF91CF91089581E020EBA3
:102E900030E03983288321EB30E03B832A831D8295
:102EA0001C8223EB30E03F832E8324EB30E0398714
:102EB00028871B861A861D861C8692E09E878F8730
:102EC00081E0888B198ADECF80E0E1CF81E08F5FDF
:102ED00020E930E03983288321E930E03B832A83ED
:102EE00022E930E03D832C8328E930E03F832E83C4
:102EF0002AE930E0398728872CE930E03B872A87A8
:102F000026E930E03D872C8793E0D8CF80E0DFCF03
:102F100080E0DECF81E08F5F20EA30E039832883D4
:102F200021EA30E03B832A8322EA30E03D832C8390
:102F300028EA30E03F832E832AEA30E03987288769
:102F40002CEA30E03B872A8726EA30E03D872C8751
:102F500094E0B4CF80E0DFCF80E0DECF81E08F5F10
:102F600020E231E03983288321E231E03B832A8368
:102F700022E231E03D832C8328E231E03F832E833F
:102F80002AE231E0398728872CE231E03B872A8723
:102F900026E231E03D872C8795E090CF80E0DFCFBF
:102FA00080E0DECF82E1FE0111928A95E9F76ACFD7
:102FB000EF92FF920F931F93CF93DF93CDB7DEB7BE
:102FC00062970FB6F894DEBF0FBECDBF61157105D5
:102FD00079F460E062960FB6F894DEBF0FBECDBF05
:102FE000DF91CF911F910F91FF90EF900C94980F6C
:102FF0006F3F710511F461E0EDCF8B01F82E682F62
:10300000CE0101960E9415178989882309F477C09B
:10301000E981FA819F858889911134C0608190E0AF
:1030200023E030E0A901481B590B440F551F042E23
:1030300001C0220F0A94EAF72095262362E070E08F
:1030400001C0660F4A95EAF7262B2083FC013396D0
:10305000EE0FFF1F21E030E02C0F3D1FE20FF31FAA
:103060000190F081E02D1183008362960FB6F894F1
:10307000DEBF0FBECDBFDF91CF911F910F91FF90AB
:10308000EF9008952A892111F0CFAFEFB0E0923090
:1030900029F0AD85BE850D90BC91A02D608190E09A
:1030A00023E030E0A901481B590B440F551F042EA3
:1030B00001C0220F0A94EAF72095262362E070E00F
:1030C00001C0660F4A95EAF7262B20830396880FE6
:1030D000991FE1E0F0E0EC0FFD1F8E0F9F1FFC0138
:1030E000E080F18098010E9492912FEF30E040E063
:1030F00050E00E944691F70131832083B6CF61E012
:103100000F37110508F460E08F2D64CF009719F098
:10311000019789F008951092900082E080939100C9
:103120001092950010929400C19A80917100826073
:103130008093710008951092A00082E08093A10016
:103140001092A5001092A40089BB8093720008958C
:10315000AF92BF92CF92DF92EF92FF920F931F93A5
:10316000CF935C016B018A018B5E9C4F7C01DC017B
:10317000CC91C7FF3DC0FB0111821082CF5FD70108
:10318000CC93CC300CF053C08CE08A9DF0018B9D29
:10319000F00D1124CF018C0F911DC7FD9A95209140
:1031A000360D2817190609F00CF441C0F6012081EC
:1031B0003181FC01EE0FFF1FE80FF91FE251F34FC1
:1031C00081819281820F931FD80111969C938E93D7
:1031D000808187FF3DC061E08F77CF911F910F9174
:1031E000FF90EF90DF90CF90BF90AF900C94980F2E
:1031F0008CE08A9DF0018B9DF00D1124CF018C0F86
:10320000911DC7FD9A952091360D2817190609F0D2
:103210000CF4B4CFFC01EE0FFF1FE80FF91FE251D1
:10322000F34F808160E08F770E94980FA7CFF6015F
:103230008081918104968034FCE99F0710F480E43A
:103240009CE9D80111969C938E938FEFF7018083B0
:10325000CF911F910F91FF90EF90DF90CF90BF9093
:10326000AF9008959091C00095FFFCCF8093C60069
:1032700008958F929F92AF92BF92EF92FF921F9309
:10328000CF93DF93CDB7DEB7A0970FB6F894DEBF2C
:103290000FBECDBF611571058105910591F120E04B
:1032A0004AE0842E912CA12CB12C11E0120FEE24B7
:1032B000E394F12CEC0EFD1EE20EF11C27FDFA94B6
:1032C000A50194010E944691F7016083B901CA01EA
:1032D000212F611571058105910539F7115018F1FC
:1032E000E1E0F0E0EC0FFD1FE10FF11D17FDFA9595
:1032F000908187E39A3008F480E3890F0E943219A5
:10330000EDCF80E3A0960FB6F894DEBF0FBECDBF21
:10331000DF91CF911F91FF90EF90BF90AF909F9062
:103320008F900C943219A0960FB6F894DEBF0FBEA2
:10333000CDBFDF91CF911F91FF90EF90BF90AF90E5
:103340009F908F900895682F70E090E080E00C943B
:103350003919CF92DF92EF92FF926B017C01F7FE59
:103360000BC0F094E094D094C094C11CD11CE11C1B
:10337000F11C8DE20E943219C701B601FF90EF9057
:10338000DF90CF900C9439198F929F92AF92BF9299
:10339000CF92DF92EF92FF92CF936B017C01B42E1C
:1033A00020E030E0A9010E94538D87FF07C08DE225
:1033B0000E943219F7FAF094F7F8F094C0E060E058
:1033C00070E080E09FE3CB1541F02DEC3CEC4CEC41
:1033D0005DE30E94B98DCF5FF6CFA70196010E94F1
:1033E000A2916B017C010E9415934B015C010E942C
:1033F0003919CC2371F1C501B4010E94588D9B018C
:10340000AC01C701B6010E94A1916B017C018EE263
:103410000E943219C150E8F020E030E040E251E46F
:10342000C701B6010E94B98D6B017C010E94159302
:103430004B015C010E943919C501B4010E94588DED
:103440009B01AC01C701B6010E94A1916B017C01F7
:10345000E1CFCF91FF90EF90DF90CF90BF90AF90F2
:103460009F908F900895CF93DF93EC0189918823EB
:1034700019F00E943219FACFDF91CF9108950E947E
:10348000331A8DE00E9432198AE00C943219CF93DE
:10349000DF93EC01FE0184912196882319F00E94AC
:1034A0003219F8CFDF91CF910895CF92DF92EF924A
:1034B000FF92E0ECFBE080818183C090420CD090D1
:1034C000430CE090440CF090450C8FEFC81AD80ADA
:1034D000E80AF80A8DE39CE10E94471AC701B60189
:1034E0000E94A9198AE00E94321989E39CE1FF90A9
:1034F000EF90DF90CF900C94471ACF93DF93EB01BE
:103500000E94471ABE0190E080E0DF91CF910C94B9
:103510003919CF92DF92EF92FF92CF93DF93EC01B4
:10352000C880D980EA80FB8085E090E10E94471A3C
:10353000C701B6010E94A919CC80DD80EE80FF8012
:103540008EE49CE10E94471AC701B6010E94A919A6
:10355000C884D984EA84FB848AE49CE10E94471AE7
:10356000C701B6010E94A9198AE0DF91CF91FF90AF
:10357000EF90DF90CF900C9432190F931F93CF935D
:103580008C01C62F84E19BE00E94471AC8010E946B
:10359000471A8AE30E94321980E38C0F0E94321985
:1035A0008AE0CF911F910F910C943219AF92BF9284
:1035B000CF92DF92EF92FF920F931F93CF93DF93FF
:1035C000EC0180EB93E00E94471A209711F4C4EEBF
:1035D000D3E010E007E0015021F080E20E943219B0
:1035E000FACF812F0E94A3191F5F153099F78AE047
:1035F0000E94321910E080E20E943219812F0E944D
:10360000A3195E0105E080E20E943219F501C08035
:10361000D180E280F380A7019601C701B6010E9424
:103620009494882361F180E20E9432198DE30E9414
:1036300032198DE30E9432198DE30E9432198DE315
:103640000E9432198DE30E9432190150F4E1AF0E4D
:10365000B11C0111D8CF8AE00E9432191F5F249655
:10366000153049F68AE0DF91CF911F910F91FF90BD
:10367000EF90DF90CF90BF90AF900C94321920E084
:1036800030E0A901C701B6010E94029487FD03C082
:103690008BE20E94321943E0C701B6010E94C419AF
:1036A000D4CF811107C089EA93E00E94471A8AE0CB
:1036B0000C9432198DEA93E0F8CF82EA93E00C94EF
:1036C000471A8CE993E00C94471ACF93DF930E943A
:1036D000611BC091E806D091E90686E09CE10E945A
:1036E000471ACE010E94331A83E09CE1DF91CF910B
:1036F0000C94471A0F931F93CF93811116C0C42FB8
:103700008B010E94611B81E799E00E94471AC80162
:103710000E94471ACC2349F08AE30E9432198AE0BA
:10372000CF911F910F910C943219CF911F910F914E
:103730000895CF93C82F41E00E947A1BC11103C0A6
:10374000CF910C94611BCF910895CF92DF92EF92AD
:10375000FF926A017B010E94471A42E0C701B6014D
:10376000FF90EF90DF90CF900C94C4194F925F922E
:103770006F927F928F929F92AF92BF92CF92DF9281
:10378000EF92FF920F931F93CF93DF93C1E5D2E0A7
:103790004C845D846E847F8409EA1CE0F8012481F6
:1037A0003581468157816C817D818E819F810E9408
:1037B000A2914B015C01F80120853185428553853A
:1037C000688579858A859B850E94A2916B017C0121
:1037D000F8012081318142815381688179818A8118
:1037E0009B810E94A291AB01BC0182E59CE10E94F9
:1037F000A51BB501A4018EE49CE10E94A51BB701A5
:10380000A6018AE49CE10E94A51BB301A20186E403
:103810009CE1DF91CF911F910F91FF90EF90DF908E
:10382000CF90BF90AF909F908F907F906F905F9060
:103830004F900C94A51BCF93DF93CDB7DEB72C9799
:103840000FB6F894DEBF0FBECDBF0E94B61B0E941C
:10385000A1129CE0EAE9F4E0DE01119601900D92DC
:103860009A95E1F781110E94AE12CE0101960E9455
:10387000891A2C960FB6F894DEBF0FBECDBFDF912C
:10388000CF910895CF93DF936AE27CE10E94991B68
:10389000CAEED6E04C895D896E897F8982E29CE11F
:1038A0000E94A51B488D598D6A8D7B8D8FE19CE10F
:1038B0000E94A51B4C8D5D8D6E8D7F8D8CE19CE1F2
:1038C0000E94A51B48A159A16AA17BA189E19CE1A5
:1038D0000E94A51B8AE0DF91CF910C943219CF93FF
:1038E000C82F41E06FE975E00E947A1BC11102C048
:1038F0000E94611B4091E20C5091E30C6091E40C3A
:103900007091E50C86E995E00E94A51B21E732EB5A
:1039100047E25EE36091E60C7091E70C8091E80C61
:103920009091E90C0E949C92AB01BC0183E995E067
:103930000E94A51B21E732EB47E25EE36091EA0CAF
:103940007091EB0C8091EC0C9091ED0C0E94B98D74
:10395000AB01BC0180E995E00E94A51B8AE0CF91F4
:103960000C9432190E94A51B8AE00C943219CF9353
:10397000DF9368E07BE00E94991BC7ECD4E04881AC
:1039800059816A817B818FEF9AE00E94A51B4C814F
:103990005D816E817F818FE19CE10E94A51B48853E
:1039A00059856A857B858CE19CE1DF91CF910C94F0
:1039B000B21CCF93811112C040E06BE774E00E940B
:1039C0007A1B8091E303811104C08EE694E00E948B
:1039D000471A8AE00E9432190E94611BC091E303DA
:1039E00085E694E00E94471A6C2F70E090E080E03A
:1039F0000E94A9194091DF035091E0036091E10317
:103A00007091E20382E694E0CF910C94B21C6BE3D8
:103A100075E00E94991B6091FA067091FB068091F7
:103A2000FC069091FD060E94588DAB01BC0182E31B
:103A300095E00E94A51B40912A0750912B076091A9
:103A40002C0770912D078FE295E00E94A51B4091F5
:103A50002E0750912F0760913007709131078CE24B
:103A600095E00E94A51B4091AA065091AB0660917B
:103A7000AC067091AD0689E295E00C94B21CCF9330
:103A8000DF936FED74E00E94991BCAEED6E04CA95B
:103A90005DA96EA97FA986ED94E00E94A51B48ADA3
:103AA00059AD6AAD7BAD83ED94E00E94A51B4CAD92
:103AB0005DAD6EAD7FAD8CE295E0DF91CF910C9462
:103AC000B21CCF93DF936BEB74E00E94991BCAEE9C
:103AD000D6E04CA15DA16EA17FA182EB94E00E9493
:103AE000A51B48A559A56AA57BA58FE19CE10E946D
:103AF000A51B4CA55DA56EA57FA58CE19CE10E9450
:103B0000A51B48A959A96AA97BA989E19CE10E9442
:103B1000A51B8AE0DF91CF910C943219CF93DF93EC
:103B200066E974E00E94991BCAEED6E0688179814B
:103B30008A819B810E94588DAB01BC018DE894E085
:103B40000E94A51B6C817D818E819F810E94588D72
:103B5000AB01BC018FE19CE10E94A51B68857985C2
:103B60008A859B850E94588DAB01BC018CE19CE14C
:103B70000E94A51B6C857D858E859F850E94588D32
:103B8000AB01BC0189E19CE10E94A51B8AE0DF91A9
:103B9000CF910C943219CF93DF93EB010E94471A17
:103BA000BE01DD0F880B990BDF91CF910C94A91901
:103BB0008F929F92AF92BF92CF92DF92EF92FF923D
:103BC0000F931F93CF93C82F02EC1CE0F801608580
:103BD0007185072E000C880B990B0E945A8D6B0182
:103BE0007C01F80184809580A680B78080E20E94E5
:103BF000321984E50E9432198AE30E94321942E0A8
:103C0000C501B4010E94C4198BEA90E10E94471AD1
:103C100042E0C701B6010E94C41962E070E080E092
:103C200090E00E9449108CE2C802F0011124EE538A
:103C3000F34F628570E08EEA90E1CF911F910F9172
:103C4000FF90EF90DF90CF90BF90AF909F908F90BC
:103C50000C94CB1D0E94471A8AE00C943219EC0197
:103C6000162F0E94BE10209729F00E94611BCE01E2
:103C70000E942A1E0E945D1B8FE29DE10E94471A4E
:103C800089EE93E0019739F000C00000EEE5F9E01D
:103C90003197F0F7F7CFF89489EE93E0019739F078
:103CA00000C00000E6EEF3E03197F0F7F7CF0E9496
:103CB000BE10112321F00E945F11A895FECF0E9433
:103CC0002411FBCFEF92FF920F931F93CF93C82F36
:103CD0007B018A018091C6048330E0F00E945D1B65
:103CE000C7010E94471A81E190E10E94471AC7FD6F
:103CF0000EC08FE090E10E94471A6C2FCC0F770B1B
:103D0000880B990B0E94A9198AE00E9432198AE057
:103D10000E9432190E94BE10A8958091AA048111B8
:103D20000CC081E08093AA0482E08093C6040E94C4
:103D3000BE1060E0C8010E942F1ECF911F910F910D
:103D4000FF90EF900895CF93C82FCB010E94471AA0
:103D50008BEB9CE00E94471A8CEA9CE0CC2311F08C
:103D600081EB9CE0CF910C942A1ECF93DF9365E208
:103D70007BE00E94991BC091460DD091470D488170
:103D800059816A817B818CE19BE00E94A51B4C815B
:103D90005D816E817F818FE19CE10E94A51B409136
:103DA000420D5091430D6091440D7091450D8CE191
:103DB0009CE10E94A51B89E19BE00E94471A8DE8C7
:103DC0009EE0DF91CF910C942A1ECF92DF92EF926A
:103DD000FF921F93CF93DF93C82F41E06FEF7EE0F8
:103DE0000E947A1BC11102C00E94611B87EF9EE0F6
:103DF0000E94471A8DE89EE00E942A1E41E065EE6F
:103E00007EE08C2F0E947A1BC11102C00E94611BB0
:103E100088EC9EE00E94471A8C2F0E94D91C8C2FA0
:103E20000E94421C8C2F0E94611D8C2F0E948E1DAF
:103E30008C2F0E943F1D8C2F0E94071D8C2F0E94EB
:103E4000B71C69EA7EE08C2F0E94991BD0913A073B
:103E500080EA9EE00E94471A6D2F70E090E080E0BB
:103E60000E94A91940913B0750913C0760913D0782
:103E700070913E078CE19CE10E94A51B83E99EE0C6
:103E80000E94471A8D2F0E94511B20E030E0A901AB
:103E90006091D7037091D8038091D9039091DA0390
:103EA0000E94538D8823A1F184EEE82E83E0F82E42
:103EB000D0E0670110E0C11102C00E94611B8EEBCF
:103EC0009EE00E94471A812F0E94A3198BEB9EE06F
:103ED0000E94471A8D2F0E94A3198CE19CE10E9439
:103EE000471AF601608171818281938145E00E94C9
:103EF000C4198AE00E9432191F5FF4E1CF0ED11C71
:103F00001530C9F6DF5F84E0E80EF11CD53089F684
:103F10008C2F0E946F1C8C2FDF91CF911F91FF90EF
:103F2000EF90DF90CF900C94B51E8091C00B9091D4
:103F3000C10B2FEF3FEF981751F0E92FF0E0E0545D
:103F4000F44F228130E09F5F9F779093C10BC901AE
:103F50000895CF92DF92EF92FF920F931F93CF932A
:103F60008C01C62F0E945D1BC090420CD090430C68
:103F7000E090440CF090450CC8010E94471AC7011C
:103F8000B6010E94A9198AE00E9432190E94951F69
:103F90000196E1F78C2F0E94551A1092470C10924F
:103FA000460CCF911F910F91FF90EF90DF90CF9033
:103FB00008958F929F92AF92BF92CF92DF92EF922D
:103FC000FF920F931F93CF93DF93B4E4A0E06A2F87
:103FD00070E0AB014B0F511D55954795411119C02C
:103FE000E4EBF0E165917491072E000C880B990BBE
:103FF0000E945A8DDF91CF911F910F91FF90EF900A
:10400000DF90CF90BF90AF909F908F900895B42F86
:10401000E0CF4A1711F0B41303C0E0ECF1E1E2CFB6
:104020009A0121503109220F331F220F331FF9014A
:10403000EE54FF4EE590F490F901EA54FF4EC5911D
:10404000D4918E159F0518F3A42FC817D90708F42B
:10405000BECFF901EC54FF4E05911491F901E854DB
:10406000FF4EC590D4908E199F09BC0190E080E06E
:104070000E94588D4B015C01B601601B710B072E2D
:10408000000C880B990B0E945A8D9B01AC01C50155
:10409000B4010E94B98D4B015C01CE19DF09BE014C
:1040A00090E080E00E94588D9B01AC01C501B401F5
:1040B0000E949C926B017C01B801110F880B990B37
:1040C0000E945A8D9B01AC01C701B6010E94A291CA
:1040D00091CFCF93DF93A8958091C40C9091C50C9C
:1040E0000E94D91F6093C60C7093C70C8093C80CB4
:1040F0009093C90CC091C40CD091C50C809143021F
:1041000090914402C817D90738F44DE650E16AE7A8
:1041100070E180E00E94621E8091CA0C9091CB0CED
:104120001816190684F480914102909142028C176E
:104130009D0748F44CE850E169E970E180E0DF91C7
:10414000CF910C94621EDF91CF9108952F923F92F0
:104150004F925F926F927F928F929F92AF92BF9297
:10416000CF92DF92EF92FF920F931F93CF93DF9343
:10417000CDB7DEB72E970FB6F894DEBF0FBECDBF1A
:104180008091C60481111AC0A8952E960FB6F89496
:10419000DEBF0FBECDBFDF91CF911F910F91FF907A
:1041A000EF90DF90CF90BF90AF909F908F907F90D7
:1041B0006F905F904F903F902F9008958091B5043D
:1041C0008111E3CF81E08093B5048091B704811120
:1041D00003C01092B504D9CF0E9469201092B70491
:1041E0000E947C1069877A878B879C876091470241
:1041F00070914802072E000C880B990B0E945A8D73
:104200004B015C01AC019B016091C60C7091C70C25
:104210008091C80C9091C90C0E94029418163CF42D
:104220004DE650E16AE770E180E00E94621E609115
:10423000CA0C7091CB0C072E000C880B990B0E94B6
:104240005A8D6B017C012091BE0C3091BF0C4091C6
:10425000C00C5091C10C0E94538D8823B9F0C092BC
:10426000BE0CD092BF0CE092C00CF092C10C21E0C9
:10427000298320E030E0A901C701B6010E94029421
:1042800018160CF0198239813093BD0C8091BD0C49
:104290008230E9F0833009F4CFC0813009F048C0A2
:1042A0002091BE0C3091BF0C4091C00C5091C10CBC
:1042B0006091C60C7091C70C8091C80C9091C90C8C
:1042C0000E94538D87FD34C082E08093BD0C209105
:1042D000C60C3091C70C4091C80C5091C90C60912C
:1042E000BE0C7091BF0C8091C00C9091C10C0E94CB
:1042F000A1912B013C010E947C106B017C0120E00C
:1043000030E040E850E4C301B2010E94538D18161A
:104310000CF481C040E4C40E4CE9D41EE11CF11C35
:10432000C092B90CD092BA0CE092BB0CF092BC0CCB
:104330008091C60C9091C70CA091C80CB091C90C8B
:1043400089839A83AB83BC83609145027091460256
:10435000072E000C880B990B0E945A8D9B01AC0113
:1043600069817A818B819C810E94029418160CF0DD
:104370007EC129813A814B815C81C501B4010E94D3
:10438000029418160CF073C18091AD04811109C01C
:1043900082EC9CE09093AC048093AB0481E080932A
:1043A000AD04A091AB04B091AC04BE87AD87189664
:1043B0006D917C91072E000C880B990B0E945A8DF1
:1043C0006B017C0120E030E0A9010E94538D88231D
:1043D000D1F0AD85BE8514962D913D914D915C91A6
:1043E00017972D833E834F835887C701B6010E94DC
:1043F000A1914B015C0120E030E040E251EC0E94D1
:10440000538D87FF21C081E0ED85FE858387C12C18
:10441000D12C7601F6C08091B90C9091BA0CA09184
:10442000BB0CB091BC0CC81AD90AEA0AFB0AF7FC0B
:104430007FCF83E08093BD0C4FE250E16FE370E1EA
:1044400080E00E94621E74CF20E030E040E251E440
:10445000C501B4010E940294181664F481E0AD8590
:10446000BE851B968C93C12CD12C9FE7E92E93E43B
:10447000F92EC7C0ED85FE858385882349F0138614
:104480001486158616861786148E158E168E178E30
:10449000AD85BE8594964D905D906D907C9097977C
:1044A0001C962D913D914D915C911F97C501B401D2
:1044B0000E94A291D62EE72EF82EC92E20E030E0E1
:1044C000A9010E94538D87FDCDC0A301920160E038
:1044D00070E08FE793E40E949C921B01182F092F34
:1044E0002D2D3E2D4F2D5C2D0E94538D87FF04C036
:1044F000D22CE32CF12EC02E8D2D9E2DAF2DBC2D58
:10450000ED85FE8584879587A687B78720A131A191
:1045100042A153A1C501B4010E94B98D4B015C01B8
:10452000AD85BE8554968D929D92AD92BC92579763
:104530002D2D3E2D4F2D5C2DC301B2010E94B98D52
:104540002B013C01ED85FE85408E518E628E738E6F
:10455000C48CD58CE68CF78C2D813E814F8158859B
:1045600060897189828993890E94A191AD85BE85F8
:1045700098962D913D914D915C919B970E94B98D9C
:10458000A70196010E94A19120ED3CEC4CE45DE373
:104590000E94B98DA70196010E94A2916B017C0136
:1045A000ED85FE85C48ED58EE68EF78E2D813E81FB
:1045B0004F815885208B318B428B538BA301920105
:1045C000C501B4010E94A291A70196010E94A29187
:1045D00020E030E0A9010E94A2916B017C0120E063
:1045E00030E0A9010E94538D87FD11CF20E030E01B
:1045F0004FE753E4C701B6010E94029418160CF469
:1046000032CFC701B6010E940E93759567956093EE
:10461000CC0C8091BD049091BE04A091BF04B091D8
:10462000C0040097A105B10509F4D3CD29853A85C9
:104630004B855C85281B390B4A0B5B0BDA01C901E2
:10464000B7FDC7CD69817A818B819C810E940E93D1
:104650002091BB043091BC046217730754F00E9490
:104660008810B7CDD12CE12CF12CC12C45CF60E0C6
:10467000CECF4FE450E16EE570E180E00E94621E13
:10468000A8CDCF92DF92EF92FF926B017C0183E382
:10469000C816D104E104F10470F082E3C81AD1080D
:1046A000E108F10862E370E080E090E00E944910C8
:1046B0000E94A620ECCFC701B6010E944910FF90CE
:1046C000EF90DF90CF900C94A6200E945D1B86E1B6
:1046D0009EE00E94471A8EE09EE00E94471A82EFF9
:1046E0009DE00E94471A0E94BE100E943E158091D4
:1046F000C604813079F00E945D1B8BE79DE00E942B
:10470000471A6EE571E080E090E00E94412381E06D
:104710008093C60408958091C304811104C08091E0
:10472000A906882331F062E070E080E090E00C940C
:10473000412308957F928F929F92AF92BF92CF9222
:10474000DF92EF92FF920F931F93CF93DF936C0151
:10475000EB01FC018081883108F0C5C090E0FC01CC
:10476000EE0FFF1FE80FF91FE251F34F80818F77A3
:104770000E94040FF6011182128280812CE0622FC8
:104780000E94B494829FB001112430E020E0AB017C
:10479000420F531FFA01EE0FFF1FE40FF51FE25106
:1047A000F34F908197FD08C02F5F3F4F2C303105AC
:1047B00071F790E00E948618F6017080E72CF12CCA
:1047C0008701000F111FF801EE0DFF1DE251F34F9D
:1047D00080818068808377FC86C0C032F2E0DF078A
:1047E0000CF040C0F601828128E532E0281B310937
:1047F00087FD3395220F331F220F331F032E000C2A
:10480000440B550B818178E8872E912C881A9108EA
:1048100087FD9394880C991C880C991C092C000C1A
:10482000AA08BB0860E070E0CB01D7FD0AC0BE015A
:10483000C53BD10514F064EB70E0072E000C880B2B
:10484000990B281939094A095B090E94369124EB12
:1048500030E040E050E00E946891820E931EA41E5A
:10486000B51EE401F7E1F71558F1F6012281318117
:1048700088E890E0831B910937FD9395880F991F75
:10488000880F991FC817D90774F088E592E0821B3A
:10489000910927FD9395880F991F880F991FC817B5
:1048A000D9070CF4CE012FB7F8940E0D1F1DF80197
:1048B000E251F34F0297880F991F928381832FBF94
:1048C00062E370E080E090E0DF91CF911F910F9163
:1048D000FF90EF90DF90CF90BF90AF909F908F9020
:1048E0007F900C944123DF91CF911F910F91FF9006
:1048F000EF90DF90CF90BF90AF909F908F907F9080
:1049000008950F931F93CF93C82F8B0187E39DE0EA
:104910000E949C16C817B9F06C2F70E087E39DE0E9
:104920000E949A23F8016081718182819381643FA2
:10493000F1E07F078105910520F464EF71E080E0EC
:1049400090E00E94412389B183FB882780F9CF91B1
:104950001F910F910895CF93DF9300D01F92CDB791
:10496000DEB78EEE92E0A0E0B0E089839A83AB835D
:10497000BC83BE016F5F7F4F8AE50E9481240F9048
:104980000F900F900F90DF91CF910895CF93DF9309
:1049900000D01F92CDB7DEB78EEE92E0A0E0B0E07F
:1049A00089839A83AB83BC83BE016F5F7F4F8AE0AC
:1049B0000E9481240F900F900F900F90DF91CF9164
:1049C00008951F93CF93DF9300D01F92CDB7DEB72A
:1049D00084EF91E0A0E0B0E089839A83AB83BC834D
:1049E000BE016F5F7F4F8CE30E94812480ED9CE0CD
:1049F0000E94471A8CB111E0829581706AEC7CE0CC
:104A000081270E94A31E809103018695817064EC2A
:104A10007CE081270E94A31E89B16EEB7CE083FBC2
:104A2000882780F90E94A31E4B990AC00E94C624C1
:104A30000F900F900F900F90DF91CF911F910895DD
:104A40000E94AB240F900F900F900F90DF91CF91A9
:104A50001F910895CF93DF9300D01F92CDB7DEB79B
:104A600084EF91E0A0E0B0E089839A83AB83BC83BC
:104A7000BE016F5F7F4F80EA0E9481240F900F90EC
:104A80000F900F90DF91CF910895CF92DF92EF9228
:104A9000FF921F93CF93DF9300D01F92CDB7DEB765
:104AA0008EEEC82E82E0D82EE12CF12CC982DA825B
:104AB000EB82FC82BE016F5F7F4F8AE50E948124FA
:104AC00081110EC010E0812F0F900F900F900F906A
:104AD000DF91CF911F91FF90EF90DF90CF900895DD
:104AE0000E942A25C982DA82EB82FC82BE016F5FB6
:104AF0007F4F8AE50E948124182F882319F30E9492
:104B00006523E1CFCF92DF92EF92FF921F93CF9375
:104B1000DF9300D01F92CDB7DEB78EEEC82E82E0B5
:104B2000D82EE12CF12CC982DA82EB82FC82BE0104
:104B30006F5F7F4F8AE00E94812481110EC010E0D8
:104B4000812F0F900F900F900F90DF91CF911F91B9
:104B5000FF90EF90DF90CF9008950E942A250E9449
:104B6000AB240E94C6240E94AB24C982DA82EB8265
:104B7000FC82BE016F5F7F4F8AE00E948124182F64
:104B80008823E9F20E946523DBCF4F925F926F92F8
:104B90007F928F929F92AF92BF92CF92DF92EF92CD
:104BA000FF92CF93DF9300D000D01F921F92CDB71A
:104BB000DEB75C01DB01CD90DD90ED90FC90E091E3
:104BC000460DF091470DFE83ED8384819581A6818A
:104BD000B78189839A83AB83BC839C01AD01C701F4
:104BE000B6010E94A1912B013C01F50180809180CA
:104BF000A280B380AD81BE818D919D910D90BC91BD
:104C0000A02D8D839E83AF83B88727E137EB41EDDD
:104C100058EBC301B2010E94029487FDD1C022E08B
:104C200030E844E554E4C301B2010E94538D1816E4
:104C30000CF4C6C02D813E814F815885C501B40159
:104C40000E94A1912B013C0127E137EB41ED58EB8C
:104C50000E94029487FDB4C022E030E849E054E4A9
:104C6000C301B2010E94538D18160CF4A9C020E0B4
:104C700030E0A9016D817E818F8198850E94A2918B
:104C80002B013C0120E030E040E251E40E94538DD2
:104C900087FF06C0412C512C30E2632E31E4732E85
:104CA00027E137EB41ED58E3C301B2010E94A19126
:104CB0009B01AC01C501B4010E94029487FD80C034
:104CC00020E030E849E054E46D817E818F81988551
:104CD0000E94A2912B013C0120E030E047E054E427
:104CE0000E940294181634F4412C512C27E0622EB5
:104CF00024E4722E27E137EB41ED58E3C301B20102
:104D00000E94A2919B01AC01C501B4010E94538D88
:104D100018160CF455C020E030E0A90169817A81B1
:104D20008B819C810E94A2914B015C0120E030E0CC
:104D300040E251E40E94538D87FF06C0812C912CE4
:104D400090E2A92E91E4B92E27E137EB41ED58E32B
:104D5000C501B4010E94A1919B01AC01C701B6013C
:104D60000E94029487FD2CC020E030E844E554E422
:104D700069817A818B819C810E94A2914B015C01A7
:104D800020E030E042E554E40E940294181634F426
:104D9000812C912C82E5A82E84E4B82E27E137EBF4
:104DA00041ED58E3C501B4010E94A2919B01AC0101
:104DB000B1E0B983C701B6010E94538D18160CF4F7
:104DC0001982898128960FB6F894DEBF0FBECDBF39
:104DD000DF91CF91FF90EF90DF90CF90BF90AF9099
:104DE0009F908F907F906F905F904F900895DF928B
:104DF000EF92FF920F931F93CF93DF931F92CDB744
:104E0000DEB78C01D42E7C01E60EF71E8091B50C26
:104E10009091B60C0E9420918983DD2011F0F80159
:104E20008083CE0101960E94EB0E8091B50C90918B
:104E3000B60C01969093B60C8093B50C0F5F1F4F84
:104E40000E151F0519F780E00F90DF91CF911F918C
:104E50000F91FF90EF90DF90089540914C0421E076
:104E6000422764E070E00C94F72640914C0421E066
:104E7000422761E070E00C94F72640914C0421E059
:104E800042276CE070E00C94F72640914C0421E03E
:104E9000422761E070E00C94F72640914C0421E039
:104EA000422768E070E00C94F72640914C0421E022
:104EB00042276CE070E00C94F72641E061E070E07E
:104EC0000C94F72641E062E070E00C94F7264091E4
:104ED0004C0421E042270C94F7269F92AF92BF9298
:104EE000CF92DF92EF92FF920F931F93CF93DF93B6
:104EF0001F92CDB7DEB78C016C01C60ED71EF12C08
:104F0000E12CC016D10609F44EC0A090B50CB090AB
:104F1000B60CF80191908F019982C5010E942091F1
:104F2000981699F1692DC5010E942891FFEFEF1A9B
:104F3000FF0AC7018F779927892B01F162E070E0A2
:104F400080E090E00E944910C5010E942091998163
:104F50008917D9F00E94611B85E19DE10E94471AE3
:104F600081E00F90DF91CF911F910F91FF90EF9013
:104F7000DF90CF90BF90AF909F90089562E070E077
:104F800080E090E00E944123DFCFCE0101960E9495
:104F9000EB0E8091B50C9091B60C01969093B60CE7
:104FA0008093B50CAECF80E0DCCF64E070E00C9471
:104FB0006D2762E070E00C946D2761E070E00C9466
:104FC0006D2761E070E00C946D276CE070E00C944C
:104FD0006D27CF92DF92EF92FF920F931F93CF93A3
:104FE000DF93CDB7DEB7C858D1090FB6F894DEBF4E
:104FF0000FBECDBFC358DF4F188219821A821B82A1
:10500000CD57D04080910A0390910B03A0910C03DF
:10501000B0910D03CF57DF4F88839983AA83BB8359
:10502000C158D04084E690E09093B60C8093B50CC4
:105030001092B80C1092B70C64E070E0CE018F575C
:105040009F4F0E946D278091B50C9091B60C0296EF
:105050009093B60C8093B50C1092B80C1092B70CCC
:1050600087E992E0CB57DF4F99838883C558D040BA
:10507000CE018B579F4F0E94D92781E0C857DF4F41
:105080008883C858D040CE0188579F4F0E94E1279F
:1050900068E470E08AEE96E00E946D2780E1E3E725
:1050A000F2E08E010F5F1F4FD80101900D928A959B
:1050B000E1F760E170E0C8010E946D278AEA96E09E
:1050C0000E94D52787EC94E00E94E5277E018DE6BB
:1050D000E80EF11C8FEFF7018083C7010E94E127E2
:1050E00019821A821B821C82C8010E94D5278091D6
:1050F0003B0790913C07A0913D07B0913E07898303
:105100009A83AB83BC83C8010E94D527C358DF4F65
:10511000188219821A821B82CD57D04083E0EA960A
:105120008FAFEA97F7018083CE0183589F4F0E948B
:10513000D527CE0187589F4F0E94E127C7010E94C3
:10514000E12780E09CE09A838983C8010E94D927E7
:105150003AE0D32EDA94DD2031F0CE0183589F4F10
:105160000E94D527F7CF8AE39DE00E94E527C35828
:10517000DF4F188219821A821B82CD57D0402AE055
:10518000D22EDA94DD2031F0CE0183589F4F0E9459
:10519000D527F7CF85E0D82EF701D082EA96DFAE8B
:1051A000EA97C7010E94E127CE0187589F4F0E94CE
:1051B000E12780E69CE69A838983C8010E94D9276B
:1051C00068E070E087ED93E00E946D2768E070E092
:1051D0008FEC93E00E946D2764E670E084EE93E02C
:1051E0000E946D271982CC24CA94F701C082C8019D
:1051F0000E94DD27C7010E94E12764E070E08AEF8A
:1052000092E00E946D278091C5048983C8010E94A5
:10521000DD278091E20C9091E30CA091E40CB09119
:10522000E50C89839A83AB83BC8321E732EB47E2A9
:105230005EE36091E60C7091E70C8091E80C909130
:10524000E90C0E949C926D837E838F83988721E76F
:1052500032EB47E25EE36091EA0C7091EB0C8091D7
:10526000EC0C9091ED0C0E94B98D69877A878B8741
:105270009C8780E090E0A0E8BFE38D879E87AF87A2
:10528000B88B198A1A8A1B8A1C8A64E170E0C801EB
:105290000E946D2784E190E09A838983C8010E946F
:1052A000D9278CE0E3E8F2E0D80101900D928A95CD
:1052B000E1F76CE070E0C8010E946D278CE0E3E844
:1052C000F2E0D80101900D928A95E1F76CE070E070
:1052D000C8010E946D271982C8010E94E1278FE74B
:1052E0008983C8010E94E127C982C8010E94E12781
:1052F000EFE8F2E0D80101900D92DA94E1F765E071
:1053000070E0C8010E946D271982C8010E94DD2744
:1053100080E2E4E9F2E0D80101900D928A95E1F78C
:1053200060E270E0C8010E946D27F7011082C7019A
:105330000E94DD2783EE93E00E94DD278FED93E04E
:105340000E94D527C358DF4F188219821A821B8208
:10535000CD57D040CE0183589F4F0E94D52782E180
:10536000F80111928A95E9F762E170E0C8010E94A4
:105370006D2784E2E4EBF2E0D80101900D928A956A
:10538000E1F764E270E0C8010E946D2790E1D92E38
:10539000F8018D2D11928A95E9F760E170E0C8015E
:1053A0000E946D271A82198262E070E0C8010E9493
:1053B0006D27C358DF4F188219821A821B82CD577E
:1053C000D040CE0183589F4F0E94D527F8011192FB
:1053D000DA94E9F760E170E0C8010E946D278CE67D
:1053E000F80111928A95E9F76CE670E0C8010E9415
:1053F0006D27F701108211821282138214821582A6
:105400001682178268E070E0C7010E946D278CE069
:10541000F70111928A95E9F7C957DF4F1882C758EB
:10542000D04080E090E0A0E4B0E4ED968CAF9DAF7A
:10543000AEAFBFAFED97C7010E94E527CE018957F8
:105440009F4F0E94E127CE0187589F4F0E94D5278A
:105450000091B50C1091B60C045611098091B70C4F
:105460009091B80CF7019183808384E690E090934B
:10547000B60C8093B50C64E070E08EEF92E00E9471
:105480006D27C7010E94D9270E94611BB80189E5D9
:105490009EE00E947D1AF701C080D180F12CE12CA2
:1054A0008CE49EE00E94471AC701B6010E94391998
:1054B00089E49EE00E94471A90E00739124039F0D3
:1054C0000E945D1B8CE09FE00E94471A92E081E001
:1054D000911180E0C857DF4F0FB6F894DEBF0FBEC2
:1054E000CDBFDF91CF911F910F91FF90EF90DF9093
:1054F000CF9008954F925F926F927F928F929F927A
:10550000AF92BF92CF92DF92EF92FF920F931F93D1
:10551000CF93DF93CDB7DEB72E970FB6F894DEBFEB
:105520000FBECDBF9E878D875B018A01DC01D696B9
:105530006D917D918D919C91D9970E94588D6B01B1
:105540007C01F50120813181428153810E94B98D16
:105550000E9480924B015C01D8012D913D914D91AB
:105560005C91C701B6010E94B98D0E9480922B0107
:105570003C01C501B4010E9415936D837E838F8326
:105580009887683771058105910540F408E710E0B8
:1055900020E030E00D831E832F833887C301B201E2
:1055A0000E94159369837A838B839C836837710586
:1055B0008105910540F428E730E040E050E0298380
:1055C0003A834B835C83AD85BE8595968D909D9087
:1055D000AD90BC909897FD01EE5BFF4F60817181AB
:1055E00082819381611571058105910509F4D7C008
:1055F0000E945A8D9B01AC0160E070E080E89FE35F
:105600000E949C9220E030E040E05FE30E94B98D70
:105610002B013C01A7019601C701B6010E94B98D7B
:105620006B017C0169817A818B819C810E94588DFC
:105630009B01AC010E94B98D9B01AC01C701B60171
:105640000E94A191A30192010E94B98D69877A8776
:105650008B879C876D817E818F8198850E94588D74
:105660009B01AC010E94B98D9B01AC01C701B60141
:105670000E94A191A30192010E94B98D2B013C01CE
:105680000E9480920E9415936B017C0169857A8546
:105690008B859C850E9444930E941593DC01CB016D
:1056A000B701A601480F591F6A1F7B1F950184018E
:1056B000041B150B260B370BB901A80177FF35C06A
:1056C000C501B4010E94588DA30192010E94A291CC
:1056D00029853A854B855C850E94A19120E030E0C8
:1056E00040E05FE30E94B98D0E9480926B017C01D3
:1056F00020E030E0A9010E94029418161CF0C12C91
:10570000D12C7601C701B6010E9415936B017C0173
:105710008C149D04AE04BF0410F475016401D5011E
:10572000C4018C199D09AE09BF09ED85FE85C1A68E
:10573000D2A6E3A6F4A695018401081B190B2A0B37
:105740003B0BD901C80185A796A7A7A7B0AB0D81D0
:105750001E812F81388502AF13AF24AF35AFFE967F
:1057600009811A812B813C81008311832283338339
:105770002E960FB6F894DEBF0FBECDBFDF91CF914E
:105780001F910F91FF90EF90DF90CF90BF90AF905F
:105790009F908F907F906F905F904F90089580E0E2
:1057A00090E0DC01C12CD12C7601BFCF4F925F92EB
:1057B0006F927F928F929F92AF92BF92CF92DF9221
:1057C000EF92FF920F931F93CF93DF93EC01209101
:1057D000CF033091D0034091D1035091D20368811F
:1057E00079818A819B810E94A1916B017C0120912A
:1057F000D3033091D4034091D5035091D6036C81EB
:105800007D818E819F810E94A1914B015C01A70146
:1058100096016091520370915303809154039091CB
:1058200055030E94538D882309F45AC0C092520335
:10583000D0925303E0925403F092550320914A030F
:1058400030914B0340914C0350914D03C701B60179
:105850000E94B98D2B013C010E9444936B017C0195
:1058600020E030E0A9010E94538D87FD7AC020E03E
:1058700030E040E850E4C701B6010E9402941816D7
:1058800034F4C12CD12CC0E8EC2EC0E4FC2EA701CE
:105890009601C301B2010E94A1912B013C0120E0BD
:1058A00030E0A9010E94538D87FD5FC04092420302
:1058B000509243036092440370924503C701B601BE
:1058C0000E940E9360934003062E000C770B6F5FCF
:1058D0007F4F6430710514F064E070E060933E0324
:1058E000D0913C0310914003A501940160915603AF
:1058F0007091570380915803909159030E94538DE2
:1059000081113CC0D11394C0209124033091250310
:105910004091260350912703609142037091430305
:1059200080914403909145030E94B98D20912803F2
:105930003091290340912A0350912B030E94A29198
:10594000DF91CF911F910F91FF90EF90DF90CF905B
:10595000BF90AF909F908F907F906F905F904F908F
:105960000895C12CD12C760192CF1092420310924F
:1059700043031092440310924503A0CF8092560334
:1059800090925703A0925803B092590320914E036E
:1059900030914F034091500350915103C501B40120
:1059A0000E94B98D4B015C010E9444936B017C0104
:1059B00020E030E0A9010E94538D87FDFDC020E06A
:1059C00030E040E850E4C701B6010E940294181686
:1059D00034F4C12CD12CB0E8EB2EB0E4FB2EA7019F
:1059E0009601C501B4010E94A1914B015C0120E028
:1059F00030E0A9010E94538D87FDE2C080924603EA
:105A000090924703A0924803B0924903C701B601A0
:105A10000E940E9360934103062E000C770B6F5F7C
:105A20007F4F6430710514F064E070E060933F03D1
:105A3000C0914103D11305C080913D038C1709F437
:105A400070C0809140039091410390933D038093F7
:105A50003C030C2E000CDD0B25E01203C0011124C9
:105A6000FC01EC0FFD1FEE0FFF1FEE0FFF1FEC51AF
:105A7000FC4F208131814281538120933803309340
:105A8000390340933A0350933B0300913F03002EA8
:105A9000000C110BFC01E00FF11FEE0FFF1FEE0FCA
:105AA000FF1FEC51FC4F60817181828193810E94C4
:105AB000A1916093340370933503809336039093E0
:105AC000370320913E0335E02303F0011124CE0F6C
:105AD000DF1FCC0FDD1FCC0FDD1FCC51DC4F288129
